:020000040800F2
:100000003855002031170108991601089B16010880
:100010009D1601089F160108A116010800000000A6
:10002000000000000000000000000000ADC8000853
:10003000A31601080000000055C8000869BA0008AE
:10004000691701086D170108711701087517010874
:10005000791701087D170108811701088517010824
:10006000891701088D1701089117010895170108D4
:10007000991701089D170108A1170108A517010884
:10008000A9170108AD170108B1170108B517010834
:10009000B9170108BD170108C1170108C5170108E4
:1000A000C9170108CD170108D1170108D517010894
:1000B000D9170108DD170108E1170108E517010844
:1000C000E9170108ED170108F1170108F5170108F4
:1000D000F9170108FD1701080118010805180108A2
:1000E000091801080D180108000000001118010886
:1000F00015180108191801081D1801082118010810
:1001000025180108291801082D18010831180108BF
:100110003518010839180108A51601083D1801080D
:100120004118010845180108491801084D1801082F
:1001300051180108AB160108551801085918010893
:1001400000000000000000000000000000000000AF
:100150005D1801086118010865180108691801088F
:100160006D1801087118010875180108791801083F
:100170007D180108811801088518010889180108EF
:100180008D1801089118010895180108991801089F
:100190009D180108A1180108A5180108A91801084F
:1001A000AD180108B1180108B5180108B9180108FF
:1001B000BD180108C1180108C5180108C9180108AF
:1001C000CD180108D1180108D5180108D91801085F
:1001D000DD180108E1180108E5180108E91801080F
:1001E000ED180108F1180108F5180108F9180108BF
:1001F000FD1801080119010805190108091901086C
:100200000D1901081119010815190108191901081A
:100210001D190108211901082519010829190108CA
:100220002D190108311901083519010800000000D5
:10023000391901083D1901080000000041190108A1
:1002400045190108491901084D19010851190108FA
:1002500055190108591901085D19010861190108AA
:1002600065190108691901086D190108711901085A
:1002700075190108791901087D19010800000000AD
:100280008119010885190108891901080000000079
:10029000000000008D1901082DE9F84F5FEA000801
:1002A00084B0DFF860AB06D10AF1280383220FF691
:1002B000281100F0F1FCD8F80440DFF84C6B3462F0
:1002C000B8F80A00142844DBDFF8409BD9F8001086
:1002D000D9F8140001F024FA002840F0748499F849
:1002E000140000F0F000E02800F06D84A08901F017
:1002F00030FA000B81001429A4BFB8F80800884226
:1003000027DBA1F114050022B5827262B8F80A3029
:100310008B4204DBF582404601F0D7FB3DE0D8F884
:10032000000030B90AF12803C2220FF6C40100F020
:10033000B3FC1421404601F0C8FBB8F80A1040464F
:10034000F1826D1AADB201F0C0FBD8F8000041890E
:10035000A942C0F2388442682946726201F0B5FBB6
:10036000B8F80810B8F80A004D1BA8F8085030B1CA
:100370000AF12803DF220FF6880100F08DFCD8F87F
:100380000010B8F808000A89904206D00AF1280344
:10039000E0220FF6780100F07FFC208801F0D9F907
:1003A0002080608801F0D5F96080606801F0D7F99D
:1003B0006060346AB062A06801F0D1F9A060F062B8
:1003C000376AF88901F0C5F9F881B88901F0C1F9F7
:1003D00000F03F0515F0030F3570B8F80800B08342
:1003E00005D0411CB18389B28142C0F0EC83DFF8B3
:1003F000200A4FF0000B046801E0A346E468002CDB
:1004000000F08180207D30B90AF12803FB220AF137
:100410006C0100F041FC207D0A2806D10AF1280376
:10042000FC220AF1940100F037FC207D012806D15E
:100430000AF12803FD220AF1C00100F02DFC207A08
:1004400010B100F021FCD8D1208B3988884202BF3E
:10045000E28A78888242D0D16168D9F8102091422E
:1004600002BF2068D9F814108842C6D1E268A242BF
:1004700007D10AF1280340F20D120AF1E80100F059
:100480000BFCBBF1000F07D0E068DFF88419CBF854
:100490000C000A68E2600C60E068A04207D10AF133
:1004A000280340F215120AF58A7100F0F5FB0020CE
:1004B0007060B8F80810C6F80880B1813761306301
:1004C00070707083280705D598F80D1041F0010170
:1004D00088F80D1004F14407786B00280AD02046F4
:1004E00002F06CFB10F10D0F06D0796B00291CBFD8
:1004F000B08B002800F0F380618D002902D12046E6
:1005000003F072FF40E3DFF80C09046800E0E468E0
:10051000002C48D0207D0A2807D00AF1280340F299
:100520001F120AF5A07100F0B7FB207A10B100F09D
:10053000ABFBECD13B88208B984202BFB7F802C0DE
:10054000E18A6145E3D16068D9F81020904202BF8A
:100550002168D9F814008142D9D16A0720466FD4A6
:10056000AC07B18B12D5B46A426AA51A14D4028DB5
:10057000AA1A002A10DC0293621809F11003F16A2A
:10058000009309F11403CDF804C01AE3EA0703D578
:10059000DFF884381C680462002951D0418B41F097
:1005A0000201418398E0DFF874380022186801E006
:1005B0000246C068002800F0F182017A39B1D9F80A
:1005C0000440491EC9B294F83440A142F0D1B7F8B2
:1005D00002C0C18A6145EBD10168D9F81440A1423B
:1005E00018BF002818BF0029E2D1044622B1E068F4
:1005F000D0601968E1601C60680721D4E906D6F86C
:1006000028A00ED5B18B09F1100238880092CDF8E0
:1006100004C009F11403029020460AEB0102F16ABA
:10062000CFE2A8070CD5607D02F089FB050008D158
:10063000A369002B04D020694FF0FF3200219847B6
:10064000C1E2D9F814002860D9F810106960E28A74
:100650000321EA82388805F1600728830AF1010046
:1006600029756862E862284602F0E2FCA865286500
:100670006864E865AAF10100686520692861FC6189
:10068000617A01F00C016972207A2872DFF8800724
:100690000168E960056004F05DF80120DFF880275B
:1006A0001070284600F072FF316AC889388078805F
:1006B000281D04F035F90146688E2A1D02F0C9FC98
:1006C00068861221284603F092FA20B100212846BC
:1006D00001F03CFE77E2284603F01FFB73E2680757
:1006E000746329D5207D022804D1F06AF968884214
:1006F00016D10CE0626AB16A914212D138B90AF19E
:1007000028034FF44E720FF2245100F0C5FA7178AD
:100710004FF6FE7041F008017170628B02406283F7
:10072000BCE1891AFCD4208D091A002903DC618BF5
:1007300041F002016183B1E1A80705D5207D0228BF
:1007400018BF032840F08E81A07EC10603D4DFF8D5
:10075000C8261368236204F19A000021417041F217
:100760001C150170204600F011FFB08BB26A96F89C
:1007700000E0336AF16ADFF89C861018039094F861
:1007800014B00EF01000ABF1020BBBF1070F19D83B
:10079000DFE81BF0FF009F00990050003500990032
:1007A0001900080000F06EFA3078C1060AD5F26A26
:1007B000FB689A4204BFB86A002803D1717841F0FF
:1007C000100171706AE100F05DFA3078C106F9D568
:1007D000F26AFB689A4204BFB86A0028F2D1204648
:1007E00002F09BFBDFF828160868A04201D117E051
:1007F0000846002846D0C168A142F9D140E000F087
:1008000041FA70788106DDD5628B204642F0020203
:10081000628302F082FBDFF8F8150868A04203D17A
:10082000C06808602EE0084600282BD0C168A142AD
:10083000F9D125E000F026FA72783078F16A930653
:1008400000F0100034D568B3FA68914204BFB86A6A
:10085000002827D1618B204641F00201618302F01C
:100860005CFBDFF8AC050068A04205D1C168DFF889
:10087000A025116006E0084620B1C168A142FAD166
:10088000E168C16000200122E060DFF894150A7081
:100890000A232375D8F80000E060C8F8004003F090
:1008A00059FFFBE0618B082041F00201618355E0B4
:1008B0000028F6D0FA68914204BFB86A002801D136
:1008C00006212175EAE000F0DDF97078810640D458
:1008D000E4E0002852D03868081A401E40D4FA6874
:1008E0008A1A002A3CDC04202075B86B002816D038
:1008F000806938B90AF128034FF46A720FF24C315B
:1009000000F0CAF9B86B8369002B08D02069002277
:100910002146984720B110F10D0F00F03581F4E029
:1009200000F0B0F9708B08B1401E7083608E4200F9
:10093000AA428CBF13462B468100994238BF8000E3
:1009400003D3AA428CBF40002846B8807078810645
:1009500005D5628B072042F00202628320759DE07C
:100960001A8809F1100002925B88039A00900193A3
:1009700009F11403204603F0F3FC8FE05FEA8E7068
:10098000FBD5616A521C8A4202D1204603F0BEFBAD
:1009900084E00EF0120EBEF1120F02BFA1F10108A9
:1009A000D7F800C0E04562D1501C521E6062E06280
:1009B0003960D889B883F88304203A612075201DF6
:1009C00003F0AEFF0146608E221D02F042FB4200A2
:1009D0006086AA428CBF13462B468100994238BFDD
:1009E000800003D3AA428CBF40002846B880B7F8E5
:1009F000220030B90AF128034FF45B729BA100F08A
:100A00004BF9788C411E7984D7F82C80B8F1000F0F
:100A100010D1D7F82880B8F1000F07D10AF12803C8
:100A20004FF45D720FF6104100F036F9D8F800006F
:100A3000B86202E0D8F80010F962404602F00AF904
:100A4000F86A00280EBF4FF0FF30002084F8420003
:100A500020867B6C33B1206900222146984710F133
:100A60000D0F29D0608B40F00200608316E0A8B122
:100A7000188802905A8809F1100320460192039ABF
:100A8000009309F1140303F06BFC94F8420006286C
:100A900004DA00212046218603F022FB707801074A
:100AA0000BD5FA6C1AB120696FF00D01904700F078
:100AB00019F9204601F0BEFA66E0728B4AB1FB6B71
:100AC0002BB120692146984710F10D0F5CD0002012
:100AD0007083204600F0E3F8002855D1D6F8308026
:100AE0006FF00C05B8F1000F29D0786B38B10AF11E
:100AF00028034FF4F3720FF6243100F0CDF8A07EF6
:100B0000C10606D5404601F011F8204601F098FCD8
:100B10003AE0D7F84090B9F1000F05D020690023E2
:100B200042462146C84705E00023424621460020B0
:100B300002F0B9F8A84227D008B1306B7863717819
:100B4000880618D5786B20B1417B41F020014173B4
:100B500011E0208DB0F5066F1CBF401C2085D7F832
:100B60004080B8F1000F06D0206900230022214602
:100B7000C047A84208D000207063204600F08FF8DC
:100B800010B9204603F0C9F8002070633063B068E4
:100B9000F8B100F0CBFF0020B0601AE0B88900F097
:100BA000D8FD40070FD43988B06A09F110030291CB
:100BB0007A88B18B0093019209F114034218F16A0B
:100BC000002003F0CDFB404605B0BDE8F04F00F03B
:100BD000ADBF05B0BDE8F08F7463705F696E70756E
:100BE000743A20696E76616C696420706275660083
:100BF000702D3E6E65787420213D204E554C4C0082
:100C0000702D3E6C656E203D3D203000702D3E7491
:100C10006F745F6C656E203D3D20702D3E6E657873
:100C2000742D3E746F745F6C656E00007463705F4A
:100C3000696E7075743A207063622D3E73746174CE
:100C40006520213D20434C4F534544007063622D85
:100C50003E6C697374656E65722D3E616363657089
:100C60007420213D204E554C4C0000007063622DD5
:100C70003E736E645F71756575656C656E203E20B0
:100C8000300000002046D1E0D9F80410401EC0B268
:100C900091F8342090427047504604F01DB838B5A2
:100CA000040008D1574840F25A2200F1280300F509
:100CB000B87104F011F8544D6A78D00610D5A17EB1
:100CC000CA0606D4D4F890201AB120696FF00E013C
:100CD000904700F007F8204601F0ACF9012032BD42
:100CE000002032BD21464A4802F048B970B50500DF
:100CF0000C4608D1434840F21F4200F1280300F59A
:100D0000CC7103F0E9FFEB68988900F022FDC00781
:100D100013D52046002401F094FF23E000F083F86F
:100D2000C00706D5012000F014FDE9688A89104348
:100D300088812046246801F08DFF9CB1E06832492B
:100D400043682A89896A26898A18D31A9B1BE5D5A4
:100D50004368D21A002A05DD42686868511A298161
:100D600000F0F6FB2C6070BD2DE9F04780460C4684
:100D70001D46DFF89090244F002C40D0E168486871
:100D800000F0EDFC0646E06800F04DF810F00300BE
:100D900018BF01202189FA6A71184018801A0128A9
:100DA0002DDA26462468706800F01FFF8246B8F8E6
:100DB0006600504507DA09F1280340F2574209F569
:100DC000E07100F0CDFBB8F86600A0EB0A00A8F8CF
:100DD0006600798B328930465118798301F03AFFE9
:100DE000B8F866000028C7D0002CC5D13DB909F17C
:100DF000280340F262420FF6540100F0B1FB204696
:100E0000BDE8F0879002010888440020C04400201B
:100E1000A8000020AC0000209C000020A4000020BE
:100E2000980000202869808900F093BC2DE9F047E4
:100E30000600DFF8DC9707D109F1280340F27B4276
:100E40000FF6280100F08CFB337D042B07DA09F143
:100E5000280340F27C420FF6300100F081FBDFF8FE
:100E6000B45706F1440728784FF6FF78C10640F1E1
:100E70000A81D7F810E0A86ABC8BD7F814C02B6A97
:100E8000E96ABEEB000A0CEB040209D402D1BCEB08
:100E9000010E05D48C450ED1B3F80EC064450AD2BC
:100EA000DB89B6F862C01C46644538BF6446FC83E3
:100EB000BB83386179613C6806F14203081B002856
:100EC00028DCA88B002801BFD7F814C0B88B604479
:100ED00090421CD1B6F93020002A18D48C4216D189
:100EE0005878411CCCB2A04238BF597058780428B9
:100EF00007DBB988728E521893B28B4238BF4246D4
:100F0000BA80032802DB304603F03AF998E000206B
:100F1000587095E0401E00F19080F868081A00288B
:100F200000F38B80728B540707D54FF6FB7002409D
:100F30007283FA880024BA80FC8400201870B6F905
:100F40003C20B6F93E40B88804EBE204A6F84040E5
:100F50003A6800245C708A1A3960317D04291ADBF2
:100F6000FC88F98CA04230D2738B1B054CBF012347
:100F70000223748E9E461FFA82FC1EFB04FE1FFA9B
:100F80008EFEF44524BF1A466243121893B2834280
:100F900019D31046F984BB6AF96AB8800FF204725B
:100FA0003046FFF7E1FEB96A0346FB620FF2FC62CE
:100FB0003046FFF7D9FEB862F86A00280CBF4FF040
:100FC000FF30002011E04046E4E7521893B28B4214
:100FD0002CBF114641468AB28242DBD3728E091A77
:100FE000121893B28342EED3D3E7308600203077D5
:100FF000B86A08B90021B9843A8C698B8A183A8496
:10100000738B1A051CD5F96A49B980B1C168486863
:1010100000F0A5FBB968081A002811DC07E0CA68CF
:10102000506800F09CFBB968081A002808DC728B35
:101030004FF2FF700240728302E0304603F0D4F9B1
:10104000706B00B3B26BE96A521A1CD5DFF8C82581
:10105000B6F93C101368181A00B2A0EBE100411871
:1010600004B2002C48BF4042B187B6F93E200904C3
:10107000C9148018A0EBA200F08701FA80F00021CB
:10108000A6F840007163A88BAA6A002800F04C8281
:10109000317D072980F24882716AA1EB020ABAF118
:1010A000010343D4AAEB0000401C00283EDCAC68DE
:1010B0003CB909F1280340F294520FF2F85100F0C4
:1010C0004FFAC24507D309F1280340F295520FF2B7
:1010D000F45100F045FAA8681FFA8AFA01895145CF
:1010E00007DA09F1280340F297520FF2E85100F0B5
:1010F00037FAA8890022A0EB0A00A881A96808890C
:10110000A0EB0A0006E0AAEB0101208162811FFA30
:1011100081FA246861895145F5DB5146204600F08B
:10112000D4FC706AA8622969486005E0521A03D5A8
:10113000708B40F002007083716AAA6A531A00F142
:10114000EE81308D1B1A5B1C002B00F3E88191426D
:1011500009F5F47A40F02D81FFF764FE10F00300EA
:1011600018BF012000F0EDF9328D80B2824233D2F7
:10117000FFF758FEC0070CD500F0EDF900F03E0077
:1011800000F0E7FA2A694CF2FF0193890B401843FB
:101190009081308DA88100F0DEF9800702D5A98901
:1011A0004144A981A989A86800F00CFCFFF73AFE28
:1011B00010F0030018BF012000F0C3F9318DAA6AB6
:1011C000736A12FA80F05918884205D009F1280391
:1011D00040F2CC5200F0C3F9386B002860D000F028
:1011E000BAF9C00707D5386B002859D001683963B0
:1011F00001F030FDF7E73C6B1AE000F0ADF9C007F5
:1012000012D500F0A8F980070ED4012000F0A1FA51
:1012100029698A891043888100F09BFA10F0030045
:1012200018BF012000F08DF92046246801F012FD5E
:10123000002C34D0E1684B68AA8BA86AB4F808C0C7
:101240008218D31AB3EB0C03D7D54B68D21A002AF5
:1012500025DD4A68101AA881FFF7E4FD800703D551
:10126000A9898844A5F80C80A989A86800F0AAFB80
:10127000FFF7D8FD10F0030018BF012000F061F95E
:10128000E2685168AB6A13FA80F0884207D009F12E
:10129000280340F2FD5209F5087100F061F93C6342
:1012A000A88BA96A09187162328D824207D209F1AE
:1012B000280340F207620FF22C4100F051F9318D02
:1012C000A88B091A3046318501F01CF9A9680889F4
:1012D00010B129630021A960FFF7A4FDC00754D510
:1012E000697841F0200169704FE0296338E048686F
:1012F000A862E068FFF797FD10F0030018BF012017
:101300002289716A8A1880187062E068FFF78BFD85
:1013100010F0030018BF01202289318D801881420E
:1013200007D209F1280340F22C6209F5177100F089
:1013300017F9E068FFF777FD10F0030018BF0120F0
:10134000318D2289891A081A3085304601F0DAF881
:101350006168088930B1286B0028C6D000F067FCAE
:1013600000206060E16800F0F7F8C00708D56978F0
:1013700041F020016970307D042804BF07213175D8
:1013800020683863204601F065FC3C6B24B1E168BD
:101390004868726A9042AAD0718BCB0751BF41F066
:1013A00001014FF6FE70014041F002017183BDE87A
:1013B000F0873C6B1CB900F0C8F83863AFE04FF021
:1013C0000008E1684868824206D0B8F1000F19D1E0
:1013D0004868101A21D50EE02089A9898842EDD2EB
:1013E00000F0B3F80028E9D0B8F1000F14BFC8F836
:1013F0000000386304E000F0A8F8002816D0386335
:1014000021462EE0D8F80C305868101A401E04D43B
:101410004868101A401C002809DD2068A04618B949
:101420004B68D31A002B1FDC0400CAD177E000F010
:101430008CF8070073D0D8F80C004268B8F8083070
:10144000A96AD218521A002A07DD4268D8F80400A7
:10145000891AA8F8081000F07BF8C8F80070214637
:101460003846FFF743FC5AE000F076F8C10756D43F
:1014700000F06BF80028206051D0E06842682389B2
:10148000A96AD218521A002A05DD42686068891AD2
:10149000218100F05DF8A88BAA6A716A1218308D5C
:1014A000521A121A002A3ADD2268D16800F054F864
:1014B000C00710D52168CA68908900F04AF900F089
:1014C0003E0000F046F922684CF2FF01D268938991
:1014D0000B4018439081308D726AA96A8218206887
:1014E000511A0181406800F033F82068C16800F0AB
:1014F00033F810F0030018BF012021680A89801812
:10150000A883328DAB6A716A13FA80F08A18904210
:1015100005D009F1280340F2F96200F020F83046C6
:10152000BDE8F04702F060BF716A521A05D4308DF1
:10153000121A521C002A7FF73AAF718B41F0020158
:1015400034E7A9894018A8837047281D01F08EBB95
:1015500089B200F037BA2969888900F0FAB8514693
:10156000484603F0B9BB2B49088B0246401C088350
:10157000486A10B1CB8A9A4203DA086A1044007DA7
:101580007047D21AD2B2805C70470000F8B50400F0
:1015900007D11F4840F27D7200F1280359A103F0E2
:1015A0009BFB1C4EB58A5DB3002030830FE0FFF734
:1015B000DAFF0746FFF7D7FF40EA072040F219227B
:1015C000904201DA010001D14FF406706086308B41
:1015D000A84215D2FFF7C7FF90B1022808D0F6D372
:1015E000FFF7C1FF02280BDB318B4018801EDCE7C0
:1015F000FFF7B9FF042803D1318B891C8D42D6DA5D
:10160000F1BD0448417841F010014170704700007D
:1016100090020108884400209C0000207063622D25
:101620003E726566757365645F64617461203D3DFB
:10163000204E554C4C0000006E6F207365676D6541
:101640006E7420746F206672656500007463705F4D
:10165000726563656976653A2076616C69642071AC
:1016600075657565206C656E677468007463705F7E
:10167000726563656976653A20696E76616C696446
:1016800020706362000000007463705F72656365C0
:101690006976653A2077726F6E672073746174653E
:1016A00000000000756E61636B656400756E7365A4
:1016B0006E740000696E7365672E7020213D204EA8
:1016C000554C4C00696E73616E65206F666673657C
:1016D000742100007062756620746F6F2073686FEC
:1016E000727421007463705F726563656976653A30
:1016F000207463706C656E203E207263765F776E37
:10170000640A00007463705F70617273656F707457
:101710003A20696E76616C69642070636200000033
:10172000C24318BF002810D091F8312093070ED57E
:101730004A6890420BD0896801EA00030A4093424C
:1017400002BFC9430840884201D1012070470020F0
:1017500070470146000A40EA012080B27047014606
:10176000080200F47F000A0A40EA016002F47F42A6
:10177000104340EA1160704780B503F03BFB002145
:10178000DFF8E426117003F03EFBDFF8E0060068A6
:1017900000E0C06830B1416F0029FAD0BDE80240D6
:1017A00001F0BABC01BD70B5BDF91050059C002612
:1017B0000660416001210281438105734473817396
:1017C000C67370BD2DE9FE4F174606468B46DFF8FF
:1017D000A096012F18BF412F06D0B7F5C17F0AD0C0
:1017E000B7F5207F71D0A4E0002000F0ABF80446EC
:1017F0002046BDE8FE8F0024A0460C2003F052FBDB
:1018000005003BD0F01C4FF6FC710840C0F5147089
:101810001FFA8BFA80B2824588BF8246A81900F170
:1018200010010022C91C01928908009753461FFA33
:101830008BF289002846FFF7B6FF287910F0030FD6
:1018400007D009F1580340F2011209F1280100F014
:10185000A2FAF61CB608B600764216F5147F07D138
:1018600009F1580340F2031209F19C0100F093FAC8
:10187000002C0CBF2C46C8F800501DE003F0BAFA4B
:10188000DFF8E455012195F80080297003F0BBFAD8
:10189000B8F1000F0BD10021DFF8D80503F01EFCD2
:1018A00028B103F0A7FA0021297003F0ACFA1CB3A9
:1018B000204600F03BF91FE0ABEB0A0B00261FFAB5
:1018C0008BF00028A84698D192E7F21C0BF1030197
:1018D00092088908920002EB810202F1100092B294
:1018E000B2EB810F24BF82B2B2EB810F04D380B27E
:1018F00003F0FAFD040001D100207AE700205B46E6
:101900000190A01900F11001C91C890800975A46DE
:1019100089002046FFF747FF207910F0030F07D01A
:1019200009F1580340F2231209F1D00100F033FA13
:101930005EE709F1580340F227120FF2705100F0F0
:101940002AFAD9E7FEB5174605460E46412F18BFBD
:10195000012F09D0DFF818054FF4A57200F15803E4
:101960000FF2645103F0B8F90B2003F09BFA040066
:1019700001D10020FEBD0020009701903346324681
:1019800029462046FFF70FFF2046FEBD3EB5C01C8E
:101990001C468008079B01EB8005AB4201D200206A
:1019A0003EBD069B002B14BF03EB800000200223EA
:1019B000009201930B460A4601462046FFF7F3FECC
:1019C00020463EBD2DE9F04104000E46DFF8A0544C
:1019D00008D105F158034FF4CC720FF2005128469C
:1019E00003F07AF92789BE423BD2BF1BBFB20FF288
:1019F00004580EE0361A2089B6B2C01B2081246834
:101A00003CB905F1580340F2AF124146284603F0B5
:101A100063F96089B042EDDB207B10F00F0F17D126
:101A200061898E4214D0607B820711D461682046A0
:101A3000091B711889B203F0BBFC040008D105F141
:101A4000580340F2BD120FF2C441284603F044F996
:101A5000668160892081206808B100F067F8002065
:101A60002060BDE8F081F8B558B9DFF8040440F211
:101A7000DF1200F158030FF2B04103F02DF90120FD
:101A8000F2BDB1F5803FFAD2D9B104890B469EB2BE
:101A9000E418A5B2B542F2D3077B3D0607D54268EC
:101AA000494200F110051144A94205D2E7E7002A96
:101AB000E5D04268494211444160418904815B1884
:101AC00043810020F2BD0022CDE710B5DFF8A0432E
:101AD00030B904F1580340F24B220FF24C410DE0B3
:101AE000B1F5803F0DD2B1B143898AB293420ADA8F
:101AF00004F1580340F255220FF23841204603F01A
:101B0000EBF8012010BD9B1A4468438103892144EE
:101B100041609A1A0281002010BD0B0058BFFFF7E8
:101B2000A2BF5B421946D0E70122F6E72DE9F04754
:101B30000400DFF83C8309D108F158034FF43772F1
:101B40000FF2E43100F04EF8002049E000250FF2DA
:101B50001C490FF2004A03F04DF90646A07B30B94C
:101B600008F1580340F2F122514600F03BF8A07B07
:101B7000471E3046A773FFB203F045F97FBB617B78
:101B8000207B26688A0700F00F000DD5206938B940
:101B900008F1580340F2FF2208F1FC0100F022F89E
:101BA00021692046884717E0022802D121460C20EF
:101BB00003E0012804D121460B2003F0AFF90BE02C
:101BC00018B9204603F033FB06E008F1580340F251
:101BD0000F32494600F006F86D1C3400BBD1E8B264
:101BE000BDE8F087404603F077B80146002001E0E9
:101BF000401C09680029FBD180B2704710B5040071
:101C000014D003F0F7F8A17B491CA17303F0FBF893
:101C1000A07B58B9DFF8580240F2423200F1580375
:101C20000FF25C31BDE8104003F056B810BD70B53E
:101C300004000D46DFF8386218BF002D0FD106F101
:101C4000580306F59071304640F25A32BDE87040B4
:101C500003F042B823892989CB18238104462068E0
:101C60000028F7D120896189884208D006F15803FD
:101C700040F2623206F5AC71304603F02DF8206870
:101C800040B106F1580340F263320FF2083130469A
:101C900003F022F82189288941182181256070BD2F
:101CA0002DE9F0470546002600270C466FF00F0887
:101CB000DFF8BC91002D18BF002C03D028892189A2
:101CC000884206D209F1580340F2CA3209F5D671AA
:101CD0004AE06089A0EB070A6889801B504538BF3D
:101CE000824660686B685246C11957449819564439
:101CF00003F01EFD6989B14207D209F1580340F291
:101D0000D9320FF2A02100F046F86089B84207D21C
:101D100009F1580340F2DA320FF2A02100F03BF84B
:101D20006089874224BF002724686889864202BFF1
:101D300000262D68002D10D02CB161892289914296
:101D400001D12068A0B92DB169892A89914201D1B8
:101D5000286890B9002CBCD11AE0CCB109F1580325
:101D60004FF479720FF2702100F015F8404610E040
:101D700009F1580340F2EA3203E009F1580340F256
:101D8000EF3209F5EE7100F006F86FF0050000E0A3
:101D90000020BDE8F087484602F09EBF2DE9F843D9
:101DA0000446002688461546B146314834B900F14C
:101DB000580340F20A420FF2302108E0B8F1000F58
:101DC0001CD100F1580340F20B4200F5027102F001
:101DD00083FF002021E0C01A80B2AFB28742C8BFA3
:101DE000074660689BB23A46B944ED1BC118B0B2D1
:101DF0004044BE1903F09CFC00232468A8B250B1F3
:101E000007E099B200296089E5D08142E3D31B1A2B
:101E10002468002CF5D11FFA89F0BDE8F28302E0B6
:101E2000C91A89B2006810B143899942F8DA02B13F
:101E30001180704738B515460A462989FFF7C2FC5C
:101E4000040001D1002032BD2946FFF729FF40B12F
:101E5000DFF81C0040F2245200F158036AA102F09E
:101E60003BFF204632BD00002F450020A800002087
:101E7000140501087917000880B500F006F800285D
:101E800001D4C0B202BD002002BD80B56A46FFF792
:101E9000C6FF38B1BDF800104289914202D24068B5
:101EA000405C02BD4FF0FF3002BD000070627566FD
:101EB0005F616C6C6F633A206572726F6E656F75EF
:101EC0007320747970650000696E76616C696420B6
:101ED000706275665F747970650000007062756687
:101EE0005F7265616C6C6F633A207020213D204EFB
:101EF000554C4C00706275665F7265616C6C6F6307
:101F00003A207120213D204E554C4C006D656D5F8F
:101F10007472696D2072657475726E6564207120CB
:101F20003D3D204E554C4C007020213D204E554CDF
:101F30004C000000696E6372656D656E745F6D6163
:101F4000676E6974756465203C3D20702D3E6C653C
:101F50006E000000706275665F667265653A20709B
:101F60002D3E726566203E2030000000696E76616D
:101F70006C69642070627566207479706500000079
:101F80007062756620726566206F766572666C6F2A
:101F900077000000702D3E6E657874203D3D204E28
:101FA000554C4C006F66667365745F746F203C3DE2
:101FB00020705F746F2D3E6C656E00006F666673F7
:101FC00065745F66726F6D203C3D20705F66726F56
:101FD0006D2D3E6C656E0000705F746F20213D209A
:101FE0004E554C4C00000000706275665F636F7068
:101FF000795F7061727469616C3A20696E76616CA8
:102000006964206275660000706275665F636F7058
:1020100079206661696C65640000000080B503F09A
:1020200093FBC0F30D00A0F58040DFF84017088057
:1020300001BD000010B50446207D012807D1DFF85E
:102040003007D42200F1280304A102F045FE214606
:102050000120BDE8104002F061BF00007463705FB2
:10206000667265653A204C495354454E00000000A5
:1020700080B500F06AFDDFF8C40A0178491C0170E0
:10208000C80703D5BDE8014000F082BB01BD0000D8
:102090002DE9FE4304000D46DFF8D48640F00780AA
:1020A00008F128034FF4AF7274A100F025F9002D58
:1020B000217DDFF88C6A42D0042918BF07293ED160
:1020C000A06F002804BF228DB2F5066F37D0A07E26
:1020D000C10606D408F128034FF4B2726FA100F0D4
:1020E0000BF9208B221D23460290E18A00922046A4
:1020F0000191626A216D02F033F9204600F00DFF74
:102100003069A04203D1C068306106E0084620B1C2
:10211000C168A142FAD1E168C16000200122E060FB
:10212000DFF8941A32700B68A34204D1FFF769FA02
:102130000020BDE8FE832046FFF77CFFF8E719B1D9
:10214000022955D013D35BE0E08A0028F3D0B068B1
:10215000A04203D1C068B06006E0084620B1C16863
:10216000A142FAD1E168C1600020E060E3E794B9E0
:1021700008F1280340F211125CA100F0BDF8002024
:10218000017D012900F0078008F128034FF48972CE
:1021900049A100F0B1F801270FF2B84959F827001A
:1021A00005686CB908F12803FF2208F1680100F006
:1021B000A3F805E0E86FA04204BF0021E967ED68DD
:1021C000002DF7D17F1C042FE8D3214606F10C0027
:1021D00000F0D4FE207D012805D108F12803DF227C
:1021E0003BA100F089F82146022002F097FE9FE70C
:1021F000214606F1100000F0C1FE012030709AE780
:102200002046BDE8FE4300BF38B5050040F0098018
:10221000DFF85C054FF4CE7200F1280333A102F021
:102220005BFD2B7D032B04D0042B0AD0072B13D08E
:1022300019E0284601F0B4FC040007D105202875F8
:1022400005E0284601F0ACFC0400F7D06CB9284644
:1022500001F063FD204632BD284601F0A1FC0400D8
:10226000F4D10920EBE7002032BD14F1010FF1D1C8
:10227000688B40F008006883F5E700007463705FC6
:10228000636C6F73655F73687574646F776E3A2003
:10229000696E76616C696420706362007063622DA0
:1022A0003E666C61677320262054465F5258434C4B
:1022B0004F534544000000007063622D3E7374610B
:1022C0007465203D3D204C495354454E00000000AC
:1022D0007463705F667265655F6C697374656E3A8E
:1022E00020214C495354454E000000007063622089
:1022F000213D204E554C4C00404602F0EDBC000004
:1023000080B558B9DFF868044FF4F47200F128037F
:1023100008A102F0E1FC6FF00F0002BD017D012970
:1023200003D0428B42F0100242830121BDE80440F9
:10233000AEE600007463705F636C6F73653A20698A
:102340006E76616C69642070636200002DE9F84F5D
:10235000040084B08B46DFF818040AD10DF1140D87
:1023600000F1280340F23D222EA1BDE8F04F02F01B
:10237000B3BC237D012B07D100F1280340F2412299
:1023800000F1900102F0A8FC217DDFF8B4770A2962
:1023900009D1214607F1140000F0F0FD204605B0F8
:1023A000BDE8F04F46E6206D00250390A946666A19
:1023B000D4F890A0D4F81080E08A21B960B100F080
:1023C000D9F9E56008E08146214607F110005D4635
:1023D00000F0D4FD01203870206F08B100F031FC0E
:1023E000E06E08B100F02DFC606F08B100F029FC30
:1023F0005DB1211D208B0091039902902346CDF8F9
:1024000004903246204601F0ABFF2046FFF712FE53
:102410005FEA0A0003D06FF00C014046D04705B0D8
:10242000BDE8F08F7463705F6162616E646F6E3AD5
:1024300020696E76616C6964207063620000000040
:10244000012183E7F8B505460C00134608BFDFF805
:10245000884ADFF81C034DB900F1280340F2A92295
:1024600022A102F039FC6FF00F00F2BD297D51B1BD
:1024700000F1280340F2AB2200F1C40102F02CFC71
:102480006FF00500F2BD180006D100F0BDF80300A2
:102490001DD16FF00100F2BD00270FF2B81656F8FB
:1024A0002700026800E0D26872B1D08A9842FAD15F
:1024B0003AB1116829B124B12068002818BF8142BF
:1024C000F1D16FF00700F2BD7F1C042FE7DB002C79
:1024D0001EBF206800282860EB82DFF86406816850
:1024E000E960856002F036F90020F2BD7463705F28
:1024F00062696E643A20696E76616C69642070630B
:1025000062000000F8B50400994D08D105F12803D8
:1025100040F2A63205F5AA71284602F0DDFB218DB6
:10252000666A628E40F231477018BA42A8BF4FF413
:102530008662E36AC01A821A01D46185F2BDF01A7C
:102540000028C8BF00260BDC9E1BB6F5803F07D3D2
:1025500005F1280340F2B63203A1284602F0BCFB85
:1025600066850020F2BD00006E65775F7263765F5E
:10257000616E6E5F776E64203C3D203078666666E3
:102580006600000038B504000D46DFF8740B08D172
:102590000DF1040D00F1280340F2CF3214A100F038
:1025A000E9BC237D012B07D100F1280340F2D3328F
:1025B00000F5BC7102F090FB208D40F661012D18F2
:1025C000ADB28D4201DA854201DA4FF40665258508
:1025D0002046FFF797FFB0F5067F08D3608B40F0E9
:1025E000020060832046BDE8324001F096BB31BD59
:1025F0007463705F7265637665643A20696E7661B4
:102600006C6964207063620070B5002211A3574C9E
:1026100020884FF6FF75401C81B2A94208BF4FF4D5
:102620004040208000252088E9B253F82110096835
:1026300000E0C96849B1CE8A8642FAD1521C90B2F4
:10264000B0F5804FE4DB002070BD6D1CE9B20429B9
:10265000EADB70BDA4000020A0000020A80000203C
:10266000AC0000202DE9F04104001F466FF00F057B
:102670003F4806D100F1280340F235420FF6AC2165
:1026800006E041B900F1280340F236420FF6B821C6
:1026900002F022FB66E0237D53B100F128034FF4E2
:1026A000876200F5D07102F017FB6FF009005AE065
:1026B000086822836060207A10B103F03AFA02E0E1
:1026C000201D02F02DF95FEA000807D0002C1CBF86
:1026D0002068002807D118F1040002D16FF0030030
:1026E00041E000682060E68A36B9FFF78DFFE0829E
:1026F00010B96FF0010036E0204604F1480500F003
:1027000097FC0021221D6162A860401E6064286160
:1027100068614FF40660616A60852085E162414628
:1027200028834FF40670608600F093FC60860120D9
:10273000288002212F64204601F059FA050011D1AA
:102740000220DFF8FC7320751EB100F013F80020A2
:10275000E0603969E1603C6101F0FCFF0120387004
:1027600000F027FA2846BDE8F0810000440100206F
:10277000F8FD0008B868A04203D1C068B86070478F
:10278000084620B1C168A142FAD1E168C160704732
:102790002DE9FE4FDFF8A863DFF864A9717870684F
:1027A000401C7060491C717028E0A84207D00AF1F3
:1027B000280340F271520AF53C7100F0C3F9EB684E
:1027C0003361B8F1000F0BD0288B2A1D2B460290E5
:1027D000E98A0092284601916A6A216901F0C0FDE8
:1027E0002C692846ED68FFF725FC002131705FB1A8
:1027F0006FF00C012046B847307828B14FF000093F
:10280000356901E0A946ED68002D00F05881287D6A
:1028100038B90AF1280340F2BE420AF5E87100F027
:1028200091F9287D012807D10AF1280340F2BF421F
:102830000AF5FE7100F086F9287D0A2807D10AF111
:1028400028034FF498620AF50A7100F07BF970785A
:10285000A97F8142D6D0A877287D4FF0000BD846BB
:1028600005F1400405F19807022806D1A178062950
:10287000A8BF4FF0010B80F29A80A0780C2819DADB
:102880007978002940D0206B38B10AF1280340F252
:10289000D4420AF5167100F055F9E06A38B90AF128
:1028A000280340F2D5420AF5237100F04BF9B878BD
:1028B0000C2802DB4FF0010B6CE078780FF6F41176
:1028C0000844397810F8010C8142BCBF491C3970AA
:1028D000397881425EDB218C2846002904D101F041
:1028E000DFFD002856D107E001F0A7F820B92846FF
:1028F00001F013FA00284DD087F800807878062878
:1029000048D8401C787045E0B5F93000010005D486
:1029100047F6FF7290421CBF401C2886B5F9300074
:10292000B4F90010884235DB284601F085FB18B168
:10293000216B79BBE06A68B3297D022914D0A078A5
:102940000C2828BF0C20B5F93C10B5F93E200FF635
:102950005413185602EBE10247F6FF7102FA00F039
:102960008842A8BF08462080A5F83080208C2189A5
:10297000814238BF0846698E400849008BB29842B0
:1029800038BF08466081688E20812846A4F82A80D6
:1029900001F08EFB287D062809D1A97EC80606D540
:1029A0007268296A521A292A28BF0BF1010B687A2A
:1029B000010728D5287D042818BF072823D171686E
:1029C000286ADFF840274FF4FA73081A616D52182D
:1029D000B2FBF3F3834204D20BF1010B4FF0010879
:1029E00011E0FA78DFF8203703FB02114FF4FA7296
:1029F000B1FBF2F1814206D2284601F029FD10B95F
:102A0000F978491CF970606B60B1B4F90020716805
:102A1000286A062312FB03F3091A994224BF2846A9
:102A200000F07AFB287D0BF10101032804D17068C6
:102A30002A6A801A292805E0092805D170682A6ABF
:102A4000801AF12828BF8B465FFA8BF0B0B1276D52
:102A5000284600F062FAB9F1000F30693FF4A5AEE4
:102A6000854207D10AF1280340F26D520AF531710F
:102A700000F068F8E868C9F80C00A2E6A946ED681D
:102A800099F81C0099F81D10401C89F81C00C0B270
:102A9000884213D3002089F81C003070D9F88C20AC
:102AA0004AB1D9F8100049469047317800297FF49F
:102AB000A5AE002802D1484601F02FF9A4E64FF058
:102AC000000975690FE0A84207D00AF1280340F217
:102AD000B3520AF55D7100F035F8E8687061284678
:102AE000ED68FFF7A7FA3DB3287D0A2807D00AF161
:102AF000280340F2A1520AF5477100F023F87068EC
:102B0000296A401AF12814D3284600F006FAB9F1D0
:102B1000000F7069D7D0854207D10AF1280340F22F
:102B2000AF520AF5537100F00DF8E868C9F80C00CF
:102B3000D5E7A946ED68D6E7BDE8F78F3045002018
:102B400098000020504602F0C7B870B5DFF8BC55B9
:102B50006878401C68702C6920E0A077608BC10702
:102B600006D500F023F8618B4FF6FC7211406183AB
:102B7000608B010706D54FF6F77210406083204640
:102B8000FFF742FBA06FE66838B1002120462970AC
:102B900000F014F828780028DDD134462CB168788C
:102BA000A17F8142D9D1E468F8E770BD40F002000E
:102BB0006083204601F0B1B8BC4400202DE9F0410B
:102BC00004000CD1DFF8380540F2096200F1280357
:102BD00000F5677102F080F86FF00F002FE0D4F875
:102BE0008450A76F002003462146002D7E7BA067FE
:102BF0003A4602D02069A84701E000F054F80100ED
:102C00006FF00C0812D1B00618D5208DB0F5066F04
:102C10001CBF401C2085D4F884507DB1206900235E
:102C200000222146A847404508D101E0404501D196
:102C3000404604E0A7676FF0040000E00020BDE814
:102C4000F08110B5002803E0046800F003F82000CC
:102C5000FAD110BD10B5040007D0606808B1FEF7C6
:102C600065FF21460320FFF7F4B910BD38B5050014
:102C700009D1DFF88C0440F2826200F128030FF2E0
:102C8000E44102F029F8032002F00CF9040001D11C
:102C9000002032BD1022294602F04AFD6068FEF78E
:102CA000ADFF204632BD080010B5144608D1DFF84C
:102CB00050044FF4D36200F128030FF2C4410EE038
:102CC0003CB12189FFF75EFC2046FEF72FFF002074
:102CD00010BD002BFBD1BDE81040FFF711BB01F088
:102CE000FBFF6FF00F0010BDB0B50446082818BFF9
:102CF000092809D0DFF8080440F2DD6200F128035A
:102D00000FF2984101F0E8FFDFF8003400210022C3
:102D100018695F6809E0057DA54205D1056A7D1B3C
:102D20008D4224BF29460246C0680028F3D12AB14B
:102D300000211046BDE8B040FFF708BBB0BDF8B5B4
:102D4000064600F085F80400DFF8C05358D1286922
:102D500000280AE0418BC4680A0705D54FF6F773CF
:102D600019404183FFF750FA2000F3D100220021DF
:102D700068696C6806E0036AE31A934224BF1A4646
:102D80000146C0680028F6D111B10846FFF758FB8C
:102D900000F05EF8040033D10920FFF7A5FF00F032
:102DA00057F804002CD10820FFF79EFF00F050F8E0
:102DB000040025D1802EA8BF7F2001DA30001CD06E
:102DC000421ED2B200230021286910E0447D9442C3
:102DD00007DB0BD16F68D0F820C0A7EB0C079F4230
:102DE00004D36968036A2246CB1A0146C0680028EA
:102DF000ECD111B10846FFF723FB00F029F8044697
:102E000024B39C21204602F0E9FE667504F14800D7
:102E10004FF486614FF4066281834FF40673628536
:102E200006262285FF2263864FF0FF33A4F8406018
:102E3000E6870126E272238606806A6822626B7842
:102E4000B34AA3774180B349C163C2642046F2BD4F
:102E5000012002F027B8000000BF40206FE700B15A
:102E60000161704738B50C4670B100F1140528783F
:102E7000012808D1A24840F2DF7200F1280300F5D2
:102E8000717101F029FF2C6731BD38B504000D4682
:102E90000DD0207D012808D1994840F2F37200F14D
:102EA000280300F57B7101F017FFC4F8805031BD95
:102EB00038B50C4670B100F114052878012808D106
:102EC0008F4840F60D0200F1280300F2144101F092
:102ED00003FFEC6731BD00006417010870B5040002
:102EE0000D461646864809D100F1280340F63D02FA
:102EF0000FF2B821BDE8704001F0EEBE237D012B3A
:102F000007D100F1280340F63E020FF2B82101F08C
:102F1000E3FEC4F88C50667770BD38B5040008D164
:102F2000774801B000F1280340F651020FF2B421B6
:102F300020E0207D00281CBF0A28012819D004F1B8
:102F40006805286918B1FEF7F1FD00212961E868DC
:102F500010B1204600F0E0F84FF0FF31218668689C
:102F6000FFF76FFEA868FFF76CFE00206860A8609E
:102F7000288031BDBDE8304001F0AEBE70B50C0018
:102F800005465F4E07D106F1280340F683020FF293
:102F9000702100F04AF83DB906F1280340F684029A
:102FA0000FF2782100F041F82868A04203D1C068F0
:102FB000286006E0084620B1C168A142FAD1E16864
:102FC000C1600020E0602046FFF7A7FF207D0A28AF
:102FD00009D0012825D0608BC10704D5FFF7E6FD95
:102FE000217D01291DD0D4F86C0030B106F12803F1
:102FF00040F6930291A100F018F8D4F8700030B1B7
:1030000006F1280340F6940292A100F00EF8D4F8DD
:10301000740030B106F1280340F6960294A100F046
:1030200004F800202075E08270BD304601F054BEE7
:1030300080B540B9DFF8C80040F6AF0200F12803C0
:1030400091A101F049FE314A9069516808189061D8
:1030500002BD38B505460C4642B9294840F6C502BE
:1030600000F1280300F23C4101F036FE002C1CBFA9
:10307000208D002807D02828CCBF2838002080B217
:10308000854288BF0546284632BD70B505000C460E
:103090000AD11B484FF4106200F1280300F264418A
:1030A00001F01AFE00E0344644B120682968E66861
:1030B000884204BF2046FFF7C3F9F4E770BD000063
:1030C00070B504000D461CBF2268002A17D00F4EB1
:1030D0003169FFF7DAFFB1682046FFF7D6FF002D10
:1030E0001CBF286800280AD0F06806E00168226842
:1030F000914204BF2B680360C0680028F6D170BD00
:10310000F8FD0008B84C0A00F824010098000020DF
:1031100000DD6D00A72C000810B50446606F18B1E3
:10312000FFF78FFD0020606710BD00007463705FC3
:10313000636F6E6E6563743A20696E76616C696464
:1031400020706362000000007463705F636F6E6ED6
:103150006563743A20696E76616C69642069706198
:10316000646472007463705F7365675F636F707926
:103170003A20696E76616C696420736567000000AF
:103180007463705F726563765F6E756C6C3A20690C
:103190006E76616C6964207063620000696E7661AE
:1031A0006C69642073746174650000007463705FFF
:1031B000706F6C6C3A20696E76616C696420706324
:1031C00062000000696E76616C696420736F636BE6
:1031D000657420737461746520666F7220706F6C03
:1031E0006C0000007463705F7063625F707572677B
:1031F000653A20696E76616C6964207063620000D4
:103200007463705F7063625F72656D6F76653A209C
:10321000696E76616C696420706362007463705FCC
:103220007063625F72656D6F76653A20696E766174
:103230006C6964207063626C69737400756E736589
:103240006E74207365676D656E7473206C65616B59
:10325000696E6700756E61636B6564207365676D89
:10326000656E7473206C65616B696E6700000000A9
:103270006F6F736571207365676D656E7473206C15
:1032800065616B696E6700007463705F6E6578746A
:103290005F6973733A20696E76616C69642070634C
:1032A000620000000102030405060707070707077D
:1032B0000700000003060C183060780020B1007A87
:1032C000002818BF02F035BC104601F029BB0000F1
:1032D0002DE9F84F04000E4692469846DFF82CBAC6
:1032E00006D10BF12803A3222BA1584601F0F4FCD0
:1032F0003EB90BF12803A4220BF16C01584601F0F2
:10330000EBFCDDF82890032001F0CCFD09F001076B
:10331000BF00050003D13046FEF708FC19E085F830
:103320000A90002028606E603189B94206DA0BF1FC
:103330002803B02220A1584601F0CEFC3089142188
:10334000C01B28813046FEF7BEFB20B12846FFF7A0
:1033500081FC00201EE06868BF087F1D4168E960AD
:10336000E08AFEF7F6F9E9680880208BFEF7F1F9AC
:10337000E96848804046FEF7F2F9EA684AEA073110
:10338000506088B2FEF7E5F9E9688881EA680020B4
:1033900050822846BDE8F28F7463705F6372656186
:1033A00074655F7365676D656E743A20696E7661EA
:1033B0006C69642070636200702D3E746F745F6C82
:1033C000656E203E3D206F70746C656E00000000DD
:1033D0002DE9F0471C000E46804692463746DFF83E
:1033E0002C9906D109F12803E82209F1900100F097
:1033F00021FB089D2DB909F12803E9221DA100F048
:1034000019FB56451AD2099880070AD4A97E4A06A4
:1034100014D40A9828B1E86E002804BF296F002947
:103420000CD0314601F21B218908BAEB810F31BF64
:10343000574606F21B274FF6FC7007404FF42072E8
:1034400039464046FEF7BEF9050008BF00200ED001
:10345000286830B109F1280340F20B120DA100F0E9
:10346000E9FA6889801B208028466E812E81BDE89C
:10347000F08700007463705F706275665F707265DC
:10348000616C6C6F633A20696E76616C6964207060
:10349000636200006E65656420756E636861696EC5
:1034A00065642070627566002DE9FE4F8AB00022C7
:1034B00090460592054606920024CDF82480002609
:1034C000ADF80C2007926FF00F070892DFF83C98D8
:1034D00035B909F128034FF4CF720FF2C04116E05D
:1034E000B5F862006A8E4008824234BFADF80E2003
:1034F000ADF80E00BDF80E0008B9ADF80E200A9820
:1035000048B909F128034FF4D77209F5927100F018
:1035100091FA384682E1287D042818BF072805D093
:1035200002281CBF03286FF00A00F3D1BDF82C005D
:1035300005F1620AC8B1BAF80210814228D3BAF87C
:103540000400092824D2002805F16C00416813D03A
:10355000002904BFE86E002807D109F128034FF4C1
:10356000AB7209F1B40100F065FAE96EBAF804B083
:10357000002900F0CC8011E0002904BF0068002879
:10358000F3D009F1280340F2591209F1F001EAE7FA
:10359000688B40F0800068833EE10146086800289F
:1035A000FBD10C46BDF80E00A77A218907F0010770
:1035B00001EB8701884207DA09F128034FF4F3721F
:1035C0000FF2F03100F036FABDF80E002189BAF89A
:1035D0000620401AA0EB8707ADF80C208AB3B8B2DA
:1035E000904207D209F128034FF4FC720FF2DC314C
:1035F00000F020FABDF80C00BDF82C1006948842AB
:1036000088BF0846BAB28242B8BF384680B2079037
:1036100007A80688BDF80C000799801BADF80C00C0
:10362000BDF80C007F1A00281CBFBDF82C108E427C
:1036300007D009F128034FF400720FF2B03100F007
:10364000F9F9BDF82C108E426CDAB8B200281CBF14
:10365000208900286BD0B8B2891B8842B1BFADF871
:103660001070BDF82C10891BADF810109DF830209B
:103670000694D00718D59DF830200121029103ABA4
:103680000192BAB20095BDF810100020FFF7A0FE1D
:10369000002805902DD00A98059BBDF810208119AF
:1036A000586802F045F829E0616800E001460868C2
:1036B0000028FBD1087B10F0C00F12D148894A685E
:1036C0000A99104488420CD13EB109F1280340F216
:1036D000312209F5AC7100F0ADF9BDF81000089089
:1036E00010E0BDF8101001220020FEF76BF8002852
:1036F000059072D00A980599304448600598FEF705
:1037000074FA8344BDF810108E19B6B20AE0BAF804
:10371000060038B109F1280340F24B2209F5C271C5
:1037200000F088F9BDF82C00864280F2A980BDF82F
:103730002C00BDF80E10801B80B2884288BF08465E
:1037400004909DF83000C20727D5B8F1000F0CBFD8
:103750000120002002909DF8300003AB019036203C
:103760000095BDF80E20049989B2FFF731FE019053
:1037700098B34189049A914207DA09F1280340F28B
:10378000672209F5DA7100F055F90A98019B049A4D
:103790008119586801F0CCFF46E0BDF80C0030B14B
:1037A00009F1280340F2712298A100F043F904982E
:1037B000012281B23620FEF705F807000DD00A98E5
:1037C0004FF420720021304478603620FDF7FAFF74
:1037D000019030BB3846FEF7A9F9698B41F08001B2
:1037E0006983059808B1FEF7A1F9B8F1000F1CBF75
:1037F0004046FFF726FABAF8040068B105F16C00FC
:103800004168002904BF0068002805D109F1280398
:103810004FF44A7200F00CF94FF0FF300DB0BDE8E4
:10382000F08F3946FEF703FA0198FEF7DEF983447C
:103830001FFA8BF00A2828BF0198CCD200200199EA
:103840000090EB6D00222846F318FFF741FD002899
:103850000690C2D0B8F1000F08BF80460CD0DDF84A
:10386000240030B909F1280340F2AB226BA100F02B
:10387000E1F8099906980860069A0499099243E7C5
:103880000798B8B1676806460FE039897118398121
:10389000386848B97B8978680A993246184401F03B
:1038A00047FF7989711879813F68002FEDD1208910
:1038B00036182681BDF80C10AAF80610059888B1B4
:1038C0003CB909F1280340F2E12209F5FA7100F050
:1038D000B1F805996068FEF7AAF9059A218910895F
:1038E000411821E0089989B2F9B1002C1CBF606829
:1038F000002807D109F1280340F2E72209F50B71EE
:1039000000F098F86268089903E01389CB181381D6
:10391000024610680028F8D11089538908181081D0
:10392000CB18538120890918218105F16C02002CE4
:103930000CBFC2F80080C4F80080BDF82C30E86DE0
:10394000C318EB65BAF80240BDF82C10AAF804B011
:10395000BAF80400641AAAF8024058B15168002964
:1039600004BF1068002805D109F1280340F2133282
:1039700000F05EF8069800281CBFC06800280AD036
:103980009DF83010880706D40820FDF7E2FE06995E
:10399000C96800F0BEF9002040E700007463705F62
:1039A00077726974653A20696E76616C696420701B
:1039B000636200006D73735F6C6F63616C20697389
:1039C00020746F6F20736D616C6C0000696E636FA3
:1039D0006E73697374656E74206F76657273697A3D
:1039E000652076732E20737061636500696E636F66
:1039F0006E73697374656E74206F76657273697A1D
:103A0000652076732E206C656E0000006F766572FF
:103A100073697A65203D3D20300000007072657644
:103A20005F73656720213D204E554C4C000000001F
:103A30000FF63831484601F04FB92DE9FE4F050029
:103A40008846B24E07D106F1280340F24B3206F504
:103A5000197100F055FCEC6E002C3BD0B8F1000F52
:103A60000AD106F1280340F2533206F5227100F024
:103A700047FC6FF0050091E02189884580F0878040
:103A800005F132073888404507D206F1280340F295
:103A90005B320FF6F82100F033FC208938B906F1CB
:103AA00028034FF457720FF6F42100F029FCA07A96
:103AB0004FF4207201908000268900F0040A36201D
:103AC000A6EB0806B6B20AEB060189B2FDF77AFE4C
:103AD0005FEA000960D060682189D9F804C03246E5
:103AE00003895B1A43449BB20CEB0A01FEF756F9BB
:103AF000B0424ED1E1684FF0000B8889FDF729FEF6
:103B000000F03F0A5FEA0A7144BF0AF0F70A4FF07B
:103B1000080B5FEACA7044BF2AF0010A4BF0010BA0
:103B2000E16800F02AFB019900EB08035A46284699
:103B3000C9B200914946FFF7CBFB050029D0606868
:103B4000FEF753F8B98E081AB88660680189891B98
:103B500089B2FDF737FF2089861B50462681FDF785
:103B6000F8FDE16800F0D5F86068FEF73EF8B98E20
:103B70004018B8866868FEF738F8B98E4018B886DD
:103B800022682A602560286808B90021F98600208B
:103B900004E04846FDF7CAFF4FF0FF30BDE8FE8F56
:103BA00038B5040008D1594840F2EB3200F128033F
:103BB0000FF6F81101F090F8E56EA5B100E00546AA
:103BC00028680028FBD100F01BFA10F0070F0AD17B
:103BD0000120FDF7BEFD00F09BF8608B40F0200057
:103BE0006083002032BD20460121BDE834402DE92C
:103BF000F8438946002619F0030F0446DFF80C81CC
:103C000007D108F1280340F2124208F52B7100F0A9
:103C1000FBF93CB908F1280340F213420FF6A81152
:103C200000F0F2F95FEA897048BF01264FF4207274
:103C3000B1003620FDF7C6FD050014D06889B0EB51
:103C4000860F07DA08F1280340F23A4208F541717D
:103C500000F0DAF90096E36D4A4629462046FFF760
:103C600037FB050006D1608B40F0800060834FF089
:103C7000FF3048E0287B10F0030F07D008F128033D
:103C800040F242420FF6601100F0BEF9288938B1C7
:103C900008F1280340F2434208F5507100F0B4F9EE
:103CA00004F16C06316811B9356004E0014608681A
:103CB0000028FBD10D6004F16607002019F0030F06
:103CC000788002D0E06D401CE0655FEAC97103D5E1
:103CD000608B40F0200060836868FDF786FF3A88BB
:103CE0008018388080B268B17168002904BF3068DC
:103CF000002807D108F1280340F2664208F55B71FD
:103D000000F082F90020BDE8F2830000D8F8000836
:103D1000E9688A891043888170472DE9F84F0400CB
:103D200084B0DFF83C8807D108F1280340F2E14273
:103D30000FF6CC0100F068F9237D012B07D108F1C3
:103D4000280340F2E44208F5657100F05DF9DFF800
:103D500014080168A14200F04F8104F14806318B3C
:103D60003088814234BF03910390756A15B9A07EF3
:103D700081072DE0221D21462046FFF79FFA5FEACA
:103D8000000907D0002C1CBF2068002807D119F1BA
:103D9000040002D16FF003002FE10068206000F002
:103DA00083F9616C2F89039B04F19802401AC019B2
:103DB000834214D2358BAB4204BFB16A002905D1CE
:103DC000507818B90123117053709070A17E880744
:103DD00040F10D81204605B0BDE8F04F04E300211D
:103DE0005170B76A27B100E0074638680028FBD158
:103DF00000F05AF9616C2B89039A401AC01882426C
:103E0000C0F0F180EA689089FDF7A3FC400707D570
:103E100008F1280340F237520FF2FC7100F0F4F879
:103E2000B06AA0B1628B12F0440F10D1716A29B14F
:103E3000086860B90989638E994208D2B08B30B1A5
:103E4000F18B082903DC12F0A00F00F0CC80207D5C
:103E5000022804D01020FDF77CFCFFF759FF3CB985
:103E600008F1280340F2B9520FF2C47100F0CCF807
:103E7000284600F0CCF800285BD1606AFDF76FFCA3
:103E8000E9688860608DFDF764FCE968C881628D2F
:103E9000606A01F1140A8218E262A87AC1070BD5A0
:103EA000221D49464FF40670FFF7D3F840F0017029
:103EB000FDF755FC4AF8040BB4F93000002844BF64
:103EC00000212186606B40B9DFF89C160A686263A6
:103ED000EB685868FDF743FCA0636868E9684268CE
:103EE00043898A1A92B29B1A4381038941609A1AC4
:103EF000028100200882AA7A143102F0010201EB4B
:103F00008200824507D008F1280340F21C620FF2BC
:103F1000407100F079F80620CDF808900190A17A60
:103F2000221D0091E37A6868214600F042FE0100FC
:103F300028D128687062217D022904D0628B4FF657
:103F4000FC700240628300F0AFF8824600F058F83F
:103F500010F0030118BF0121288950440818B168E6
:103F6000091A48BFB06000F04BF810F0030018BF0A
:103F70000120298941182FD000222A60B06A30B967
:103F8000B56227E0618B41F08001618335E0EA682A
:103F90005068FDF7E4FBF968824600F0EEF8BAEBF2
:103FA000000016D504F1700A01E0DAF800A0DAF892
:103FB000000040B100F0E0F8E968834600F0DDF869
:103FC000BBEB0000F1D4DAF800002860CAF800501A
:103FD00005E03D602F4602E02846FEF73BFE756A8D
:103FE000002D7FF405AF706A08B900213184628B1F
:103FF0004FF67F7002406283002005B0BDE8F08F6D
:10400000E8688089FDF7A5BB404600F065BE10B5A5
:10401000040009D1DFF8480540F29A5200F1280364
:1040200000F56F7100F058FE6368987B012801D09D
:10403000012010BD002010BD70B5040009D1DFF8CB
:10404000200540F2636200F1280300F5816100F071
:1040500043FE256F2DB303E0FFF7D9FF08BB2D68A2
:10406000286800282846F7D1FFF7D1FFC8B9E06ECD
:1040700000222860216F608BE166226740F40060B7
:10408000608300F011F80646FFF7BAFF10F0030056
:1040900018BF0120298971184018E064002060636E
:1040A00070BD6FF0050070BDE9684868FDF757BB4B
:1040B00010B5040009D1DFF8A8044FF4D36200F171
:1040C000280300F22C4100F007FE94F84200FF287C
:1040D0001CBF401C84F842002046BDE810401CE68E
:1040E00010B5040009D1DFF8780440F2AD6200F1A8
:1040F00028030FF2705100F0EFFD2046FFF79CFF00
:1041000018B92046BDE81040D2E710BDF8B505004B
:1041100009D1DFF84C0440F2C16200F128030FF22C
:10412000605100F0D9FD05F13406F46B1CB1204656
:10413000FFF76DFF10B16FF00500F2BD20686C3520
:10414000F06300E02D68286838B100F015F8E168E8
:10415000074600F012F83F1AF4D4296821602C6059
:10416000206808B90022B286B07BFF281CBF401C23
:10417000B07300203060F2BDC1684868FDF7EFBA47
:1041800038B5040009D1DFF8D80340F2F96200F134
:1041900028030FF2045100F09FFD04F14805AA6ABC
:1041A00002B3A07E41071DD42046FFF7AFFFC8B978
:1041B000288B2988814238BF084600EBD070618E79
:1041C000401082B2B2EB410F38BF480001EB410111
:1041D00011FA80F12980628B42F0040262836880C8
:1041E0000020208631BD2DE9F84F0D4611464919B2
:1041F0008246143199464FF4207289B22220FDF78D
:10420000E1FA040031D0608905F11401884208DA2E
:10421000D34840F2247200F1280300F58A6100F0CF
:104220005BFD0A98DDF834800C9EDDF82CB06768E1
:104230002D06FDF78EFAAD0E6D1D38805846FDF740
:1042400088FA78805046C7F8049046EA0536FDF7AC
:1042500086FAB860B0B2FDF77CFAB8814046FDF747
:1042600078FAF8810020388278822046BDE8F28F03
:10427000F8B5040084B00D4616461F4608D1B8486C
:1042800040F2427200F1280300F5906100F024FD35
:10429000638D1022029232460393208B3B4601909D
:1042A000E18A0091606A2946FFF79DFF18B1628D8F
:1042B000616A8A18E26205B0F0BD70B50C0015465F
:1042C000A74E07D106F1280340F2567206F5956114
:1042D00000F016F8606805F0010500F114021430D2
:1042E00000EB85018A420AD006F12803304640F2ED
:1042F00075720FF25C31BDE8704000F0EDBC70BD2E
:10430000304600F0E9BCFEB50C00054616461F46D7
:1043100008D1934840F2877200F1280300F59A61B2
:1043200000F0DAFC3A4631462846FEF7C7FF10B9DE
:104330006FF003050FE0002D19BFEB7AA97AFF2378
:1043400000210290062001903A4600913146204615
:1043500000F02FFC05462046FDF7E8FB2846FEBD91
:104360002DE9F8431C0084B0074688461646DFF85E
:10437000F09107D109F1280340F2C4720FF23831ED
:10438000FFF758FB0C9D3DB909F1280340F2C572B7
:104390000FF24031FFF74EFB4046FDF7E0F946F2E1
:1043A000080114220391BDF83830BDF83410029290
:1043B000019303460091002200213046FFF713FFCE
:1043C00006000DD00023002231463846FFF775FF66
:1043D0002B4622463146384605B0BDE8F04392E709
:1043E00005B0BDE8F083000038B5040007D15C4893
:1043F00040F2EA7200F12803BDA100F06DFC206DCF
:10440000FDF7ADF90346002200212046FFF730FFFB
:10441000050006D1608B40F0030060836FF001005F
:1044200032BD0023002229462046FFF746FF231D08
:10443000224629462046FFF766FF628B030012BF23
:1044400042F003024FF6FC710A40628332BD000065
:1044500038B5050007D1424840F6240200F1280390
:10446000ABA100F039FC286D401EFDF778F903463A
:10447000002200212846FFF7FBFE040002D14FF086
:10448000FF3032BD0023002221462846FFF715FFEA
:104490002B1D2A462146284601B0BDE8304032E7B0
:1044A0002DE9F041040008D12D4840F64F0200F1FB
:1044B000280300F2FC4100F00FFCE66E0EB900206C
:1044C0004BE094F89A00FF281CBF401C84F89A0027
:1044D000F068FFF796FDC00704D531894D1EAD4148
:1044E000ED0F00E00025F06885F00102002143682F
:1044F0002046FFF7BDFE5FEA000808BF4FF0FF301F
:104500002BD0D8F804704DB11120FDF722F9BA89EB
:104510004CF2FF010A401043B88109E0706831890C
:10452000012203895B1A9BB207F11401FDF736FCE7
:10453000F168FFF722FE216D401C091A48BF206573
:104540000023002241462046FFF7B7FE231D2246E6
:1045500041462046BDE8F041D5E6BDE8F0810000C7
:10456000D8F80008BC4400209C0000207463705FF1
:1045700077726974653A2076616C6964207175653B
:104580007565206C656E67746800000073706C69F7
:1045900074203C3D206D73730000000075736567E7
:1045A0002D3E6C656E203E20300000007463705F0D
:1045B00073656E645F66696E3A20696E76616C69D8
:1045C00064207063620000007463705F656E7175D3
:1045D0006575655F666C6167733A20696E76616CBC
:1045E00069642070636200007365672D3E746370B8
:1045F000686472206E6F7420616C69676E65640018
:104600007463705F6F75747075743A20696E76614B
:104610006C69642070636200525354206E6F742082
:104620006578706563746564206865726521000053
:104630007463705F6F75747075745F7365676D65B3
:104640006E743A20696E76616C69642070636200F2
:104650006F7074696F6E73206E6F742066696C6C16
:10466000656400007463705F7265786D69745F7271
:10467000746F3A20696E76616C69642070636200C1
:104680007463705F7265786D69743A20696E7661E3
:104690006C696420706362007463705F7265786D2A
:1046A00069745F666173743A20696E76616C6964DF
:1046B00020706362000000007463705F7273743A6C
:1046C00020696E76616C6964206C6F63616C5F69F0
:1046D000700000007463705F7273743A20696E76C4
:1046E000616C69642072656D6F74655F697000004C
:1046F0007463705F73656E645F656D7074795F611C
:10470000636B3A20696E76616C6964207063620045
:104710007463705F6B656570616C6976653A20697A
:104720006E76616C696420706362000080B5FDF78D
:104730009FFC6E4A1168002902BF6D4B1868002863
:1047400005D000226B49FA20BDE808406DE06A49B7
:10475000086001BD684A1068002800D0704710B595
:10476000624B1968002902BF614C2068002807D0FD
:104770000121FA20116000225E49BDE8104054E09A
:1047800010BD70B504460D4616460A2000F08AFB9F
:1047900048B95A48BE2200F1680300F12801BDE87B
:1047A000704000F099BA0021554B01608560C660E9
:1047B00044601A682AB15168641AB4F1004F03D3F7
:1047C0000260186070BD0A46116829B143684C68E0
:1047D0001B1BB3F1004FF6D30160106070BD38B5FC
:1047E00004466068804701F06CFB454925684B68CA
:1047F0004449EB181A1AB2F1004F22462CBF281870
:104800001846BDE83840BCE738B53E4C3EA505F13A
:10481000080221464FF47A7000F007F805F1100203
:1048200021464FF47A70BDE8384070B50446B4F1C3
:10483000804F0D46164608D3304840F2291200F149
:10484000680300F1B00100F047FA01F03AFB32468C
:1048500029462018BDE8704093E7B0B5284C22687F
:10486000B2B100239568854204BFD7688F4204D057
:1048700013461268002AF5D1B0BD1068002B0CBF9A
:104880002060186011460A20BDE8B04000F046BB29
:10489000B0BDF8B501F015FB0446194D10E04868AD
:1048A000221AB2F1004F0ED20B682B608E68CF68CF
:1048B00068600A2000F032FB30001CBF3846B04769
:1048C00029680029EBD1F1BD10B50D4C206810B955
:1048D0004FF0FF3010BD01F0F4FA21684A68101A59
:1048E000B0F1004F28BF002010BD0000A80000203C
:1048F000AC0000202D47000824450020B40F01081B
:1049000014450020DF470008FA000000712000086D
:10491000E803000085630008E8030000F97F000851
:1049200070B5DFF8901304680A6800E01268AAB155
:1049300092F8313003F005010529F7D151680029BB
:10494000F4D0956805EA040629408E4204D0990700
:10495000ECD4D3689C42E9D1104670BDDFF85823EF
:10496000116859B191F8313003F00503052B05D1D9
:104970004A68002A1CBF00787F2801D1002070BD42
:10498000084670BD80B5014691F83100C2070BD5CD
:104990004A684AB1DFF824034069904202D0FCF72C
:1049A000BFFE08B1012002BD002002BD2DE9F84381
:1049B000054688466F6839780809042844D188007C
:1049C00000F03C097888FCF7C4FE29890446884237
:1049D00003D221462846FCF7F5FF6889484574DB79
:1049E0002989A14271D3B9F1140F6EDB3869B34E36
:1049F0007061F8683061307D00F0F000E02808D187
:104A000098F83110CA0702D5D8F8040028B9002454
:104A100015E04046FFF7B6FF08B144460FE0307D91
:104A200000247F280BD0A3490C6800E0246834B12F
:104A30004445FBD02046FFF7A5FF0028F6D030699B
:104A40004146FCF76DFE002861D1307C00F0F0009B
:104A5000E0285CD0002C5ED170694146FCF760FE16
:104A6000002854D170696C68FCF779FE697B11F0FD
:104A7000180F4CD100F07042B2F1604F1CBF00F033
:104A80007041B1F1704F42D0002805D410F07F4042
:104A900018BFB0F1FE4F3AD070694FF6A96180B2ED
:104AA000884234D006F11400FFF73AFF002818BFFF
:104AB00040452CD0217A491E2172C9B231B9607AA1
:104AC000012824D0284601F00FFC20E061894FF630
:104AD000FE739942ACBF891C491C6181018D89B16B
:104AE0002A8991420ED2A1794B0606D4014606F1DD
:104AF0001402284601F006FF09E00421284601F0CF
:104B0000F0FB04E0436906F1140229469847284661
:104B1000FDF70CF809E0F8884FF63F71084207D01E
:104B2000284601F009FD050001D100203FE06F6833
:104B300034604946C6F80480B7603878800000F0D9
:104B40003C00B0812846FCF7C0FF787A01280DD0E0
:104B5000062806D011280ED14146284602F05FF8FB
:104B60001EE041462846FBF797FB19E041462846E0
:104B700001F01AFB14E070692146FCF7D1FD60B921
:104B8000307D00F0F000E02807D049462846FCF7C9
:104B9000CBFF0221284601F0A4FB2846FCF7C6FF04
:104BA000002030607060B060B08130617061BDE83D
:104BB000F2833EB5089D0C4622B100291ABF096850
:104BC00000292C1D02959DF818109DF81C5000918D
:104BD0002146019500F002F83EBD00002DE9F843A2
:104BE00006460D46B77B14469846DFF8D490012F51
:104BF00000F0088009F128034FF4557233A14846AC
:104C000000F06AF8002C37D014213046FCF75BFF27
:104C1000A8BB70897768142808D209F1280340F2EC
:104C2000893209F17001484600F056F80998089950
:104C300087F808804522787220683861DFF8848020
:104C40003A7079703089FCF784FD78800020F88014
:104C5000B8F800904846FCF77CFDB88009F10100E7
:104C6000A8F800001DB918480168F96001E02A6839
:104C7000FA600020788109E07189142902DA6FF066
:104C8000010014E071686C46086900900A9B188D59
:104C900040B13189884205D222461946304601F09A
:104CA00031FE04E018465B69224631469847BDE86C
:104CB000F2830000FC44002000450020C044002096
:104CC0008C1301082C45002064170108702D3E72DA
:104CD0006566203D3D2031000EB4C0B5024603A8F4
:104CE00000210190009101AB0121044878440C306F
:104CF00002F0ABF806BC5DF810FB00BF0DCA000067
:104D000038B584B004460D464FEA0D0041A110228B
:104D100000F00EFD00950021684603F0C3F8206006
:104D200000280CBF4FF0FF30002005B030BD80B52B
:104D30000068002203F0CBF808B14FF0FF3002BD4D
:104D4000FEB505460E46144602F0DDFF074629680B
:104D500064B12246684603F0D5F80098102802D1C5
:104D60000199316009E04FF0FF30FEBD4FF0FF3296
:104D7000684603F0C7F80198306002F0C4FFC01B1A
:104D8000FEBDFFE7006800B1012070470000000091
:104D900080B500BF23A002F0F4FF1D49086001BDEB
:104DA00010B5044621A002F0ECFF206010B94FF0CE
:104DB000FF3010BD002010BD00684FF0FF3102F041
:104DC000E9BF21E02DE9F84187B006460C46904640
:104DD0001D460E9F68461C2100F000FF00964146CC
:104DE00001946846ADF80870049502F094FF08B08D
:104DF000BDE8F08180B506484FF0FF31006802F051
:104E0000C9FF012002BD0248006802F0E4BF0000B3
:104E10002045002000000000040000000000000009
:104E20000000000000000000000000000000000082
:104E3000000000007047704738B500884FF6FC71DD
:104E4000C01C084000F050FB0446FFF7D3FF0546A6
:104E50008CB114F0030009D03B4840F2191200F164
:104E6000800300F15C013430FFF736FF2846FFF77E
:104E7000CAFF204632BDFFF7C6FF002032BD00004A
:104E800080B558B9DFF8C0004FF49E7200F180037E
:104E90002EA13430FFF720FF002002BDBDE8024004
:104EA000CAE700000D2810B5274C0ADB04F1800387
:104EB00040F257122AA104F13400FFF70DFF002041
:104EC00010BD54F82000BDE81040B5E710B50C4601
:104ED00014F0030008D01C4840F26D1200F180036A
:104EE00027A13430FFF7F8FEFFF784FFFFF78BFFB1
:104EF0002046BDE8104000F09AB9000040B91248C1
:104F000040F2951200F1800310A13430FFF7E4BEA7
:104F1000002918BFFFF7DABF704700000D2810B551
:104F2000094C0ADB04F1800304F134004FF4D5721C
:104F30001BA1BDE81040FFF7CFBE21B154F82000FF
:104F4000BDE81040C2E710BD70110108696E7661BE
:104F50006C696420706F6F6C20646573630000007F
:104F60006D656D705F6D616C6C6F633A2074797004
:104F700065203C204D454D505F4D415800000000DC
:104F80006D656D705F667265653A206D656D207048
:104F9000726F7065726C7920616C69676E65640010
:104FA0006D656D705F667265653A20747970652015
:104FB0003C204D454D505F4D4158000038B5744D73
:104FC00000F058F8296821B16868884701E0FFF7C8
:104FD00060FCFFF779FC044614F1010F09D105F1DB
:104FE0000C00FFF7EEFE002200F03FF800F042F860
:104FF0000EE0002CEBD005F10C00FFF7E2FE22469C
:1050000000F033F8044600F035F814F1010FDED05B
:10501000DDF8002063A15F482AB900F1280391223E
:10502000FFF75AFED5E7144622787AB1022A01D05A
:1050300004D316E0A06861688847CAE7A068626880
:10504000904721460820FFF769FFC2E7A168606822
:10505000E268904710B16068FCF768FD21460920BE
:10506000F1E700F12803CF22DAE7694605F10800ED
:10507000FFF766BE05F10C00FFF79EBE2DE9F0417B
:105080000546DFF80C810E46174608F10800FFF7C9
:1050900078FE18B93F48FC2200F044F80920FFF7D9
:1050A00001FF04000ED000202146207008F1080006
:1050B0006560A660E760FFF73AFE28B12146092047
:1050C000FFF72CFF4FF0FF30BDE8F08191F8312061
:1050D00012F0180F14BF304A304ACFE7F8B5054632
:1050E0002B4F0E4607F10800FFF74BFE20B9294869
:1050F00040F25D1200F016F80820FFF7D3FE04001E
:105100000DD001202146207007F108006560A660DF
:10511000FFF70DFE28B121460820FFF7FFFE4FF0F4
:10512000FF30F2BD00F1280326A1FFF7D5BD000036
:105130007CB504460D4602F03BFF154E0621346057
:1051400006F108007560134CFFF7DAFD40B104F179
:10515000280340F2612204F16C012046FFF7BCFDF8
:1051600006F10C00FFF71CFE40B104F1280340F2E9
:10517000652204F190012046FFF7AEFD00204FF4B8
:10518000806300900022064912A0FFF71BFE73BD4A
:10519000E84400203412010891B30008AD4900082A
:1051A000BD4F000874637069705F746872656164F4
:1051B0003A20696E76616C6964206D65737361670E
:1051C00065000000496E76616C6964206D626F78DD
:1051D0000000000074637069705F746872656164D8
:1051E0000000000020B5DFF84004DFF84014002381
:1051F00001604FF460524B800B71DFF834340A8049
:10520000012543601D711A805A8081600C30FFF7C0
:10521000C7FD58B1DFF81C0440F21F2200F128033B
:105220000FF26C41BDE82040FFF756BD20BD0028BD
:1052300000D1704710F003012DE9F042DFF8F4636C
:1052400006D006F1280340F2732206F1940110E023
:10525000DFF8D443A0F1080521688D4222BF6268BF
:105260000C30824208D206F1280340F27F220FF26E
:105270003C4100F09AF892E004F10C00FFF79CFD2D
:10528000287930B906F128034FF4237206F1B801EA
:105290007FE02F8820686B8843F60109291A89B2BC
:1052A000C2194F4500EB030E38BF4B456BD28B4202
:1052B0001CBFBEF800308B4265D163689A421CBFA8
:1052C00052888A425FD100212971A3689D4238BF6C
:1052D000A560854207D206F1280340F2DF120FF2E3
:1052E000603100F062F86068854207D306F1280358
:1052F0004FF4F0720FF2603100F057F8287938B1AE
:1053000006F1280340F2E1120FF2683100F04DF887
:105310002888484507D306F128034FF4F27206F1B6
:10532000680100F042F82A8821688B189D4211D04C
:10533000187978B96668B3420CD0A068984208BF63
:10534000A5601E882E801888B0F5605F02D06F1AA5
:105350008B1C1F526E888B19AB420ED0187960B926
:10536000A668AE4208BFA360288818802888B0F5D8
:10537000605F02D05A1A891C0A5204F10C00BDE881
:10538000F042FFF71EBD06F1280340F2952206F118
:10539000E00100F00AF804F10C00FFF712FDFFF73E
:1053A00029FDBDE8F042FFF72EBD3046FFF794BC63
:1053B0002DE9F047CD1C4FF6FC7215400C2D32BF85
:1053C0000C2543F601039D4233D28D4231DB8046EA
:1053D000954F3868DFF85CA2804502D37868804535
:1053E00007D30AF1280340F2D22200BFB6A100F091
:1053F00077F83C68A04502D37868804504D3FFF76E
:10540000F9FCFFF700FD68E038F8081CA8F1080077
:10541000041BA4B2091BA1F108001FFA80F9A945D9
:1054200080F209800AF128034FF43972ACA100F030
:1054300057F8002052E04D454FD007F10C00FFF720
:10544000BBFC38F8082C39688E1800BFACA1307945
:10545000C8B9B2F5605F05D10AF1280340F2F52220
:1054600000F03EF82D1939680835BB68ADB23088B8
:105470004A19B34208BFBA6000230E1D735510804D
:10548000881C44531DE005F11400814521D32D19DA
:105490000835B2F5605F05D10AF1280340F21632F3
:1054A00000F01EF83968A8B2BB680A189A4238BFE3
:1054B000BA6000230E1D335438F8083C13808B1C4F
:1054C0001C5228F8085C1088B0F5605F1CBF891C6E
:1054D0000D5207F10C00FFF774FC4046BDE8F08761
:1054E0005046FFF7F9BB000001002DE9F8430FD04B
:1054F000C21C4FF6FC7101EA0209B9F10C0F38BF6A
:105500004FF00C0902D3B9F5605F01D8814502DA8A
:105510000020BDE8F283444E06F10C00FFF74CFC7E
:105520003168B7687F1ABFB200E01788C9F56052CA
:10553000974274D2CA19144620790028F5D12088E0
:10554000C01B08384845F0D309F114018842DFF840
:10555000E48021D309EB07050835ADB2B5F5605FEE
:1055600040F0078008F1280340F2873264A100F080
:1055700063F830680021021D515523884119821CAF
:105580000B8057530127258027710988B1F5605F8B
:1055900004D0801C455201E001212171B1688C4288
:1055A00015D1726802E00988306801440879002842
:1055B00018BF9142F7D1B160914218BF002806D0C0
:1055C00008F1280340F2B53252A100F035F806F197
:1055D0000C00A144FFF7F5FB706809F1080188424F
:1055E00007D208F1280340F2BA3208F58A7100F0B8
:1055F00023F814F003000FD008F128034FF46F7262
:1056000008F5A27100F018F808F1280340F2BE3244
:1056100008F5BA7100F010F804F1080079E706F116
:105620000C00FFF7CEFB73E7D844002000400430A5
:1056300000780430800901084046FFF74DBB0000A8
:10564000706C75675F686F6C65733A206D656D206F
:105650003E3D2072616D0000706C75675F686F6C15
:1056600065733A206D656D203C2072616D5F656EDB
:1056700064000000706C75675F686F6C65733A203A
:105680006D656D2D3E75736564203D3D20300000D5
:105690006661696C656420746F206372656174650E
:1056A000206D656D5F6D7574657800006D656D5F6B
:1056B000667265653A20696C6C6567616C206D6522
:1056C0006D6F7279000000006D656D5F7472696DB9
:1056D0003A206C6567616C206D656D6F72790000B2
:1056E0006D656D5F7472696D2063616E206F6E6CA5
:1056F0007920736872696E6B206D656D6F727900C9
:10570000696E76616C6964206E657874207074725D
:10571000000000006D656D5F6D616C6C6F633A2019
:10572000216C667265652D3E75736564000000002E
:105730004AB1000011F8013B521E00F8013B1CBFAA
:1057400011F8013BF8E77047F0B42249224AD1F83A
:10575000807056681078214C214D6FF0004320BBBB
:10576000082005FB064637461E46B7FBF6F6401EE8
:1057700003FB1676F5D10F46102005FB06469C4626
:10578000B6FBFCFC03FB1C663E601E4657F804CBD0
:1057900005FB0C4CBCFBF6F603FB16C6401E47F897
:1057A000046BEAD1CF6F0120107005FB06461C4642
:1057B00007F01F07B6FBF4F451F8270003FB14664B
:1057C00041F82760C1F88000566020F04040F0BCEE
:1057D0007047000018430020BC0000205FF36E3CBF
:1057E0000D66190070472DE9F0470500DFF8648366
:1057F00006D108F1280340F227120FF2643108E0C5
:10580000099C200008D108F128034FF4947208F194
:105810006C0100F0A6F82DE0DFF83C0301B9014669
:1058200002B9024603B903460A98089F0026B64605
:105830006E600FF24839C5F808E0EE600FF2ED2611
:105840006E6105F13106A5F828E086F800E06F6288
:10585000DFF80873C5F81CE0C5F820E097F800C031
:1058600086F803C02861284600F094F82846A0472F
:10587000002803D0002032E0401CF070F078FF28B0
:1058800004BF0021F1704FF0000A7C681BE0AC42BD
:1058900006D108F1280340F28B12494600F061F866
:1058A0000AF1010ABAF5807F07DB08F1280340F20C
:1058B0008D1208F1900100F054F8F07894F834104B
:1058C0008142D9D02468002CE1D1F078FE280CBFA9
:1058D0000020401C38707868286028467D60BDE84C
:1058E000F08738B504460D46FDF7EAFB2946204609
:1058F000BDE8344001F05EBA2DE9FC410C000646DB
:1059000015460FF28C27DFF84C8205D108F12803E9
:1059100040F2CB1200F024F82DB908F128034FF41F
:10592000E67200F01DF820687168884215D000907A
:105930007068286069462846FFF7D3FF002C0CBF2B
:105940000020206870600121304600F072F8F16993
:1059500009B130468847012000E00020BDE8F6810B
:1059600039464046FFF7B8B90A6883689A4204D0BE
:1059700001B90022826001207047002070470A6848
:10598000C3689A4204D001B90022C2600120704766
:10599000002070472DE9FC4180460C0017461E464A
:1059A0006D4808BF044607B9074606B90646002CED
:1059B0001CBF2368002B06D16A46214640460125BC
:1059C000FFF79AFF00E00025002239464046FFF726
:1059D000CBFF002231464046FFF7D1FF25B96A468A
:1059E00021464046FFF788FFBDE8F3815B498860A8
:1059F0007047000010B5040009D156484FF45472A6
:105A000000F1280366A1BDE81040FFF765B904F175
:105A10001C00417DCA070BD441F0010141750168AA
:105A200009B12046884720460321BDE8104000E028
:105A300010BD38B504000D4608D1464840F26D321D
:105A400000F1280300F1E401FFF746F994F8311062
:105A500001F00502052A0BD1EB0709D5606838B1C2
:105A6000090705D5211D2046BDE8344002F05EBE81
:105A700031BD000038B5040008D136480DF1040DE1
:105A800000F1280340F29B324CA130E004F11C05E8
:105A9000687DC1070AD500F0FE006875000744BFA5
:105AA000204602F0E9FB296801B11CE031BD38B5A0
:105AB000040008D1274801B000F128034FF47872A0
:105AC00000F5847113E004F12005687C410709D4D6
:105AD00040F00400032168742046FFF7AAFF2968FC
